:1000000045C0000060C000005EC000005CC0000091
:100010005AC0000058C0000056C00000BDC000001B
:1000200052C000004FC100004EC000004CC0000094
:100030004AC0000048C0000046C0000044C00000A4
:1000400014C1000040C000003EC000003CC00000E1
:100050003AC0000038C0000036C0000034C00000C4
:1000600032C0000030C000002EC000002CC00000D4
:100070002AC0000028C0000026C0000024C00000E4
:1000800022C0000020C000001EC0000011241FBEBE
:10009000CFEFD0E1DEBFCDBF11E0A0E0B1E0E2E6FE
:1000A000FFE000E00BBF02C007900D92A033B10744
:1000B000D9F721E0A0E3B1E001C01D92A036B2075C
:1000C000E1F74BD14CC79CCFCF93DF9300D0CDB796
:1000D000DEB71A82198229813A81281739077CF004
:1000E00011C021503109E9F729813A812F5F3F4F33
:1000F0003A83298329813A81281739071CF428EE8D
:1001000033E0EFCF0F900F90DF91CF910895CF9311
:10011000C82F82E090E0D8DFCBBBAA9AA998A89A12
:10012000A898CF910895CF93C82F82E090E0CCDFBC
:10013000CBBBAA98A998A89AA898CF910895E7DF71
:1001400082E090E0C1CF0895CF93DF93EC018881E6
:10015000882329F02196F3DF89918111FCCFDF916B
:10016000CF91089581E0DFDF82E090E0ADCF089588
:100170008FEF8ABB84BB88E3D6DF82E090E0A4DF08
:100180008FE0D1DF82E090E09FDF86E0CCDF82E08D
:1001900090E09ADFE7CF08951F920F920FB60F926B
:1001A00011240F931F932F933F934F935F936F935C
:1001B0007F938F939F93AF93BF93809138019091DA
:1001C0003901892B79F481E090E090933901809393
:1001D00038011092340110923501109236011092BC
:1001E000370132C0109239011092380180913401E8
:1001F00090913501A0913601B091370140915C0199
:1002000050915D0160915E0170915F01880F991FAF
:10021000AA1FBB1F8C019D01000F111F221F331F3E
:10022000000F111F221F331F800F911FA21FB31F2A
:10023000840F951FA61FB71F80935C0190935D01EB
:10024000A0935E01B0935F01BF91AF919F918F9199
:100250007F916F915F914F913F912F911F910F91DE
:100260000F900FBE0F901F9018951F920F920FB610
:100270000F9211248F939F93AF93BF938091380176
:1002800090913901019799F4809134019091350151
:10029000A0913601B09137010196A11DB11D809347
:1002A000340190933501A0933601B09337018EEC61
:1002B00082BFBF91AF919F918F910F900FBE0F9012
:1002C0001F9018951F920F920FB60F9211248F93C3
:1002D0009F93AF93BF938091300190913101A09192
:1002E0003201B09133010196A11DB11D80933001FF
:1002F00090933101A0933201B0933301BF91AF913C
:100300009F918F910F900FBE0F901F90189563BD16
:1003100014BC28EE33E0AC01429FC001439F900D16
:10032000529F900D1124092E000CAA0BBB0B40917B
:100330003001509131016091320170913301841785
:100340009507A607B70799F710923001109231016F
:1003500010923201109233010895CF93DF93CDB7FD
:10036000DEB72A970FB6F894DEBF0FBECDBF8FEB76
:1003700082B980E489BF80E38ABF83E083BF81E8DC
:1003800087BF8EEC82BF8BE785BD8FEF87BB7894EC
:10039000EFDE84E190E098DE80E8C5DE84E190E065
:1003A00093DE8EE0E0E0F1E0AEE3B1E001900D928B
:1003B0008A95E1F78EE391E0C7DE84E190E084DE88
:1003C0000F2EFEE0AF2EF1E0BF2EF02D0EE311E078
:1003D0000F2EF2E48F2EF1E49F2EF02D0F2EF4E479
:1003E0002F2E312CF02D80E395E76EDE60915C01BD
:1003F00070915D0180915E0190915F01E6D120E0F6
:100400003CE742E958E44BD16B017C0110925C015E
:1004100010925D0110925E0110925F012DEC3CEC98
:100420004CE85FE35ED2A70196015BD2A70196017B
:1004300058D22B013C0123E333E343E750E4C701E7
:10044000B6014FD2A70196014CD29B01AC01C3016A
:10045000B201C0D02B013C0120E030E042E054E486
:10046000C701B6013ED29B01AC01C301B201B3D0BA
:1004700022E538EB4EE15FE3AED020E030E042E031
:1004800053E40DD16B017C0172D170933D016093F7
:100490003C0160913C0170913D0180E090E093D17E
:1004A0009B01AC01C701B60195D020E030E04AE7DE
:1004B00054E417D25CD170933B0160933A012091D0
:1004C0003A0130913B0180913C0190913D013F9375
:1004D0002F939F938F93BF92AF921F930F9364D2EA
:1004E00047DE84E190E0F0DD80E81DDE84E190E00D
:1004F000EBDDC80129DE84E190E0E6DD80EC13DE6F
:1005000084E190E0E1DD80913C0190913D010FB6E6
:10051000F894DEBF0FBECDBF4097A8F485E0EAE1B6
:10052000F1E0DE01119601900D928A95E1F7CE017E
:1005300001960ADE84E190E0C7DD6FEF70E08EE1A6
:1005400090E0E5DE50CF80913C0190913D01849791
:10055000A8F487E0EFE1F1E0DE01119601900D9241
:100560008A95E1F7CE010196EFDD84E190E0ACDD04
:1005700064E670E08EE190E0CADE35CF80913C0108
:1005800090913D018C34910580F49A8289823C825D
:100590002B82CE010196D8DD84E190E095DD62E307
:1005A00070E08EE190E0B3DE1ECF89E0E6E2F1E09C
:1005B000DE01119601900D928A95E1F7CE01019628
:1005C000C3DD84E190E080DD60E070E08EE190E0EA
:1005D0009EDE09CF5058BB27AA270ED048C139D17B
:1005E00030F03ED120F031F49F3F11F41EF42EC1C3
:1005F0000EF4E095E7FB24C1E92F4AD180F3BA1746
:10060000620773078407950718F071F49EF562C1BD
:100610000EF4E0950B2EBA2FA02D0B01B90190011D
:100620000C01CA01A0011124FF27591B99F0593F61
:1006300050F4503E68F11A16F040A22F232F342FA9
:100640004427585FF3CF469537952795A795F040F7
:100650005395C9F77EF41F16BA0B620B730B840B0C
:10066000BAF09150A1F0FF0FBB1F661F771F881FC4
:10067000C2F70EC0BA0F621F731F841F48F487951C
:1006800077956795B795F7959E3F08F0B3CF93950B
:10069000880F08F09927EE0F9795879508950CD04D
:1006A000E6C0DED040F0D5D030F021F45F3F19F045
:1006B000C7C0511110C1CAC0EBD098F39923C9F338
:1006C0005523B1F3951B550BBB27AA276217730758
:1006D000840738F09F5F5F4F220F331F441FAA1F0C
:1006E000A9F333D00E2E3AF0E0E830D091505040CC
:1006F000E695001CCAF729D0FE2F27D0660F771F7A
:10070000881FBB1F261737074807AB07B0E809F05B
:10071000BB0B802DBF01FF2793585F4F2AF09E3FF0
:10072000510568F08DC0D7C05F3FECF3983EDCF315
:10073000869577956795B795F7959F5FC9F7880F69
:10074000911D9695879597F90895E1E0660F771FBB
:10075000881FBB1F621773078407BA0720F0621B4C
:10076000730B840BBA0BEE1F88F7E095089598D0B1
:1007700088F09F5790F0B92F9927B751A0F0D1F08A
:10078000660F771F881F991F1AF0BA95C9F712C014
:10079000B13081F09FD0B1E008959CC0672F782FD1
:1007A0008827B85F39F0B93FCCF386957795679580
:1007B000B395D9F73EF490958095709561957F4FEC
:1007C0008F4F9F4F0895E89409C097FB3EF4909592
:1007D0008095709561957F4F8F4F9F4F9923A9F01A
:1007E000F92F96E9BB279395F695879577956795A9
:1007F000B795F111F8CFFAF4BB0F11F460FF1BC0ED
:100800006F5F7F4F8F4F9F4F16C0882311F096E97F
:1008100011C0772321F09EE8872F762F05C066232D
:1008200071F096E8862F70E060E02AF09A95660FE6
:10083000771F881FDAF7880F9695879597F908959F
:1008400097F99F6780E870E060E008959FEF80EC83
:10085000089500240A941616170618060906089526
:1008600000240A9412161306140605060895092E8C
:100870000394000C11F4882352F0BB0F40F4BF2BFB
:1008800011F460FF04C06F5F7F4F8F4F9F4F08953B
:1008900057FD9058440F551F59F05F3F71F0479531
:1008A000880F97FB991F61F09F3F79F08795089516
:1008B000121613061406551FF2CF4695F1DF08C035
:1008C000161617061806991FF1CF86957105610552
:1008D00008940895E894BB2766277727CB0197F9FA
:1008E00008950BD0C4CFB5DF28F0BADF18F09523F8
:1008F00009F0A6CFABCF1124EECFCADFA0F3959FAE
:10090000D1F3950F50E0551F629FF001729FBB27F6
:10091000F00DB11D639FAA27F00DB11DAA1F649FA2
:100920006627B00DA11D661F829F2227B00DA11D55
:10093000621F739FB00DA11D621F839FA00D611DDB
:10094000221F749F3327A00D611D231F849F600DFC
:10095000211D822F762F6A2F11249F5750408AF035
:10096000E1F088234AF0EE0FFF1FBB1F661F771FC1
:10097000881F91505040A9F79E3F510570F060CFFD
:10098000AACF5F3FECF3983EDCF3869577956795A9
:10099000B795F795E7959F5FC1F7FE2B880F911DDF
:1009A0009695879597F908950F931F93CF93DF93AB
:1009B000CDB7DEB72E970FB6F894DEBF0FBECDBF12
:1009C0000D891E8986E08C831A8309838FEF9FE748
:1009D0009E838D83AE01475E5F4F6F89788DCE0118
:1009E000019610D0EF81F885E00FF11F10822E964E
:1009F0000FB6F894DEBF0FBECDBFDF91CF911F9130
:100A00000F9108952F923F924F925F926F927F9233
:100A10008F929F92AF92BF92CF92DF92EF92FF920E
:100A20000F931F93CF93DF93CDB7DEB72B970FB6FE
:100A3000F894DEBF0FBECDBF6C017B018A01FC01C3
:100A400017821682838181FFBFC1CE0101963C01CE
:100A5000F6019381F70193FD859193FF81917F01C9
:100A6000882309F4ADC1853239F493FD859193FF54
:100A700081917F01853221F4B60190E0D6D1E8CF93
:100A8000912C212C312CFFE1F315D8F08B3279F029
:100A900038F4803279F08332A1F4232D20611DC017
:100AA0008D3261F0803369F4232D216016C0832DCF
:100AB0008260382EE32DE4603E2E2AC0F32DF860CC
:100AC0001DC037FC2DC020ED280F2A3040F08E329B
:100AD000B9F436FC75C1232D2064322E19C036FEC0
:100AE00006C08AE0989E200D1124922E11C0EAE0E3
:100AF0002E9E200D1124222EF32DF0623F2E08C0D1
:100B00008C3621F4832D8068382E02C0883641F45B
:100B1000F70193FD859193FF81917F018111B3CFFF
:100B2000982F9F7D9554933028F40C5F1F4F9FE3BF
:100B300099830DC0833631F0833771F0833509F026
:100B400055C020C0F801808189830E5F1F4F882423
:100B50008394912C530112C02801F2E04F0E511CD6
:100B6000F801A080B18036FE03C0692D70E002C09C
:100B70006FEF7FEFC5014ED14C018201F32DFF775E
:100B80003F2E15C0280122E0420E511CF801A08022
:100B9000B18036FE03C0692D70E002C06FEF7FEFB9
:100BA000C5012DD14C01F32DF0683F2E820133FC9D
:100BB00019C0822D90E088169906A0F4B60180E253
:100BC00090E033D12A94F5CFF50137FC859137FEBB
:100BD00081915F01B60190E028D121102A9421E093
:100BE000821A91088114910479F7E1C0843611F0DA
:100BF000893639F5F80137FE07C06081718182813D
:100C000093810C5F1F4F08C060817181072E000C1B
:100C1000880B990B0E5F1F4FF32DFF763F2E97FF2A
:100C200009C090958095709561957F4F8F4F9F4F2C
:100C3000F0683F2E2AE030E0A30133D1882E8618D9
:100C400044C0853731F4232D2F7EB22E2AE030E0C8
:100C500025C0932D997FB92E8F36C1F018F48835B1
:100C600079F0AEC0803719F0883721F0A9C0E92F9C
:100C7000E061BE2EB4FE0DC0FB2DF460BF2E09C096
:100C800034FE0AC0292F2660B22E06C028E030E0CC
:100C900005C020E130E002C020E132E0F801B7FEFB
:100CA00007C060817181828193810C5F1F4F06C0F4
:100CB0006081718180E090E00E5F1F4FA301F1D051
:100CC000882E8618FB2DFF773F2E36FE0DC0232D74
:100CD0002E7FA22E891458F434FE0BC032FC09C0BA
:100CE000832D8E7EA82E05C0B82CA32C03C0B82C53
:100CF00001C0B92CA4FE0FC0FE01E80DF11D8081DA
:100D0000803321F49A2D997EA92E09C0A2FE06C037
:100D1000B394B39404C08A2D867809F0B394A3FCED
:100D200010C0A0FE06C0B21480F4280C922C9B18B0
:100D30000DC0B21458F4B60180E290E076D0B394BE
:100D4000F8CFB21418F42B1802C0982C212CA4FE52
:100D50000FC0B60180E390E068D0A2FE16C0A1FCEF
:100D600003C088E790E002C088E590E0B6010CC0BF
:100D70008A2D867851F0A1FE02C08BE201C080E28C
:100D8000A7FC8DE2B60190E050D0891430F4B60192
:100D900080E390E04AD09A94F8CF8A94F301E80D6A
:100DA000F11D8081B60190E040D08110F6CF222065
:100DB00009F44ECEB60180E290E037D02A94F7CF06
:100DC000F6018681978102C08FEF9FEF2B960FB6B9
:100DD000F894DEBF0FBECDBFDF91CF911F910F9171
:100DE000FF90EF90DF90CF90BF90AF909F908F904B
:100DF0007F906F905F904F903F902F900895FC01EF
:100E00000590615070400110D8F7809590958E0F35
:100E10009F1F0895FC016150704001900110D8F7A8
:100E2000809590958E0F9F1F08950F931F93CF93DA
:100E3000DF93FB01238121FD03C08FEF9FEF2CC0C7
:100E400022FF16C0468157812481358142175307FE
:100E500044F4A081B1819D012F5F3F4F31832083F6
:100E60008C93268137812F5F3F4F3783268314C0B1
:100E70008B01EC01FB010084F185E02D0995892BA4
:100E8000E1F6D80116968D919C91179701961796C9
:100E90009C938E931697CE01DF91CF911F910F9166
:100EA0000895FA01AA27283051F1203181F1E89400
:100EB0006F936E7F6E5F7F4F8F4F9F4FAF4FB1E04D
:100EC0003ED0B4E03CD0670F781F891F9A1FA11D48
:100ED000680F791F8A1F911DA11D6A0F711D811D49
:100EE000911DA11D20D009F468943F912AE0269F0E
:100EF00011243019305D3193DEF6CF010895462F6D
:100F00004770405D4193B3E00FD0C9F7F6CF462F4D
:100F10004F70405D4A3318F0495D31FD40524193B6
:100F200002D0A9F7EACFB4E0A69597958795779573
:100F30006795BA95C9F700976105710508959B01FA
:100F4000AC010A2E06945795479537952795BA9583
:100F5000C9F7620F731F841F951FA01D0895F89491
:020F6000FFCFC1
:100F6200496E697469616C697A652E2E2E0025645A
:100F72002E25642075672F6D3300474F4F44004E76
:100F82004F524D414C0056455259204241440000B7
:00000001FF
